{
  "contractName": "Giveaway",
  "abi": [
    {
      "constant": true,
      "inputs": [
        {
          "name": "",
          "type": "uint256"
        }
      ],
      "name": "playerAddresses",
      "outputs": [
        {
          "name": "",
          "type": "address"
        }
      ],
      "payable": false,
      "stateMutability": "view",
      "type": "function"
    },
    {
      "constant": true,
      "inputs": [],
      "name": "generatedVET",
      "outputs": [
        {
          "name": "",
          "type": "uint256"
        }
      ],
      "payable": false,
      "stateMutability": "view",
      "type": "function"
    },
    {
      "constant": true,
      "inputs": [],
      "name": "counter",
      "outputs": [
        {
          "name": "",
          "type": "uint256"
        }
      ],
      "payable": false,
      "stateMutability": "view",
      "type": "function"
    },
    {
      "constant": true,
      "inputs": [],
      "name": "numSpots",
      "outputs": [
        {
          "name": "",
          "type": "uint256"
        }
      ],
      "payable": false,
      "stateMutability": "view",
      "type": "function"
    },
    {
      "constant": false,
      "inputs": [],
      "name": "renounceOwnership",
      "outputs": [],
      "payable": false,
      "stateMutability": "nonpayable",
      "type": "function"
    },
    {
      "constant": true,
      "inputs": [],
      "name": "giveawayStatus",
      "outputs": [
        {
          "name": "",
          "type": "bool"
        }
      ],
      "payable": false,
      "stateMutability": "view",
      "type": "function"
    },
    {
      "constant": true,
      "inputs": [],
      "name": "owner",
      "outputs": [
        {
          "name": "",
          "type": "address"
        }
      ],
      "payable": false,
      "stateMutability": "view",
      "type": "function"
    },
    {
      "constant": true,
      "inputs": [],
      "name": "isOwner",
      "outputs": [
        {
          "name": "",
          "type": "bool"
        }
      ],
      "payable": false,
      "stateMutability": "view",
      "type": "function"
    },
    {
      "constant": true,
      "inputs": [
        {
          "name": "",
          "type": "uint256"
        }
      ],
      "name": "winners",
      "outputs": [
        {
          "name": "",
          "type": "address"
        }
      ],
      "payable": false,
      "stateMutability": "view",
      "type": "function"
    },
    {
      "constant": true,
      "inputs": [],
      "name": "spotCost",
      "outputs": [
        {
          "name": "",
          "type": "uint256"
        }
      ],
      "payable": false,
      "stateMutability": "view",
      "type": "function"
    },
    {
      "constant": true,
      "inputs": [],
      "name": "availSpots",
      "outputs": [
        {
          "name": "",
          "type": "uint256"
        }
      ],
      "payable": false,
      "stateMutability": "view",
      "type": "function"
    },
    {
      "constant": false,
      "inputs": [
        {
          "name": "newOwner",
          "type": "address"
        }
      ],
      "name": "transferOwnership",
      "outputs": [],
      "payable": false,
      "stateMutability": "nonpayable",
      "type": "function"
    },
    {
      "constant": true,
      "inputs": [],
      "name": "canReserve",
      "outputs": [
        {
          "name": "",
          "type": "bool"
        }
      ],
      "payable": false,
      "stateMutability": "view",
      "type": "function"
    },
    {
      "anonymous": false,
      "inputs": [
        {
          "indexed": false,
          "name": "player",
          "type": "address"
        }
      ],
      "name": "SpotReserved",
      "type": "event"
    },
    {
      "anonymous": false,
      "inputs": [
        {
          "indexed": false,
          "name": "spots",
          "type": "uint256"
        }
      ],
      "name": "AllSpotsReserved",
      "type": "event"
    },
    {
      "anonymous": false,
      "inputs": [
        {
          "indexed": false,
          "name": "winner",
          "type": "address"
        },
        {
          "indexed": false,
          "name": "ownerFee",
          "type": "uint256"
        },
        {
          "indexed": false,
          "name": "payoutToWinner",
          "type": "uint256"
        },
        {
          "indexed": false,
          "name": "totalPayout",
          "type": "uint256"
        }
      ],
      "name": "Winner",
      "type": "event"
    },
    {
      "anonymous": false,
      "inputs": [
        {
          "indexed": true,
          "name": "previousOwner",
          "type": "address"
        },
        {
          "indexed": true,
          "name": "newOwner",
          "type": "address"
        }
      ],
      "name": "OwnershipTransferred",
      "type": "event"
    },
    {
      "constant": true,
      "inputs": [],
      "name": "getGiveawayStatus",
      "outputs": [
        {
          "name": "",
          "type": "uint256"
        },
        {
          "name": "",
          "type": "uint256"
        },
        {
          "name": "",
          "type": "uint256"
        },
        {
          "name": "",
          "type": "bool"
        },
        {
          "name": "",
          "type": "bool"
        }
      ],
      "payable": false,
      "stateMutability": "view",
      "type": "function"
    },
    {
      "constant": true,
      "inputs": [],
      "name": "getEnergy",
      "outputs": [
        {
          "name": "",
          "type": "uint256"
        }
      ],
      "payable": false,
      "stateMutability": "view",
      "type": "function"
    },
    {
      "constant": true,
      "inputs": [],
      "name": "getBalance",
      "outputs": [
        {
          "name": "",
          "type": "uint256"
        }
      ],
      "payable": false,
      "stateMutability": "view",
      "type": "function"
    },
    {
      "constant": true,
      "inputs": [],
      "name": "getWinners",
      "outputs": [
        {
          "name": "",
          "type": "address[]"
        }
      ],
      "payable": false,
      "stateMutability": "view",
      "type": "function"
    },
    {
      "constant": true,
      "inputs": [],
      "name": "getPlayers",
      "outputs": [
        {
          "name": "",
          "type": "address[]"
        }
      ],
      "payable": false,
      "stateMutability": "view",
      "type": "function"
    },
    {
      "constant": false,
      "inputs": [
        {
          "name": "spots",
          "type": "uint256"
        },
        {
          "name": "cost",
          "type": "uint256"
        }
      ],
      "name": "startGiveaway",
      "outputs": [],
      "payable": true,
      "stateMutability": "payable",
      "type": "function"
    },
    {
      "constant": false,
      "inputs": [],
      "name": "withdraw",
      "outputs": [],
      "payable": true,
      "stateMutability": "payable",
      "type": "function"
    },
    {
      "constant": false,
      "inputs": [
        {
          "name": "player",
          "type": "address"
        }
      ],
      "name": "withdrawByAddress",
      "outputs": [],
      "payable": true,
      "stateMutability": "payable",
      "type": "function"
    },
    {
      "constant": false,
      "inputs": [],
      "name": "reserveSpot",
      "outputs": [],
      "payable": true,
      "stateMutability": "payable",
      "type": "function"
    },
    {
      "constant": false,
      "inputs": [],
      "name": "endGiveaway",
      "outputs": [],
      "payable": false,
      "stateMutability": "nonpayable",
      "type": "function"
    }
  ],
  "bytecode": "0x608060405265456e65726779600160006101000a81548173ffffffffffffffffffffffffffffffffffffffff021916908373ffffffffffffffffffffffffffffffffffffffff160217905550336000806101000a81548173ffffffffffffffffffffffffffffffffffffffff021916908373ffffffffffffffffffffffffffffffffffffffff1602179055506000809054906101000a900473ffffffffffffffffffffffffffffffffffffffff1673ffffffffffffffffffffffffffffffffffffffff16600073ffffffffffffffffffffffffffffffffffffffff167f8be0079c531659141344cd1fd0a4f28419497f9722a3daafe3b4186f6b6457e060405160405180910390a36118e2806101166000396000f300608060405260043610610133576000357c0100000000000000000000000000000000000000000000000000000000900463ffffffff16806312065fe01461013857806315c6aee2146101635780633ccfd60b146101d057806346ca20fd146101da57806361bc221a1461020557806368bd1a5b146102305780636e2e82431461025b578063715018a6146102915780637c36cde9146102a85780637c87d9bc146102f75780637e763794146103215780638a5efa4e146103505780638b5b9ccc1461035a5780638da5cb5b146103c65780638f32d59b1461041d5780639f54c9e41461044c578063a2fb117514610463578063b4eff98c146104d0578063c02e7057146104fb578063df15c37e14610526578063e64c02f314610592578063f2fde38b146105bd578063fe22865714610600575b600080fd5b34801561014457600080fd5b5061014d61062f565b6040518082815260200191505060405180910390f35b34801561016f57600080fd5b5061018e6004803603810190808035906020019092919050505061064e565b604051808273ffffffffffffffffffffffffffffffffffffffff1673ffffffffffffffffffffffffffffffffffffffff16815260200191505060405180910390f35b6101d861068c565b005b3480156101e657600080fd5b506101ef61080f565b6040518082815260200191505060405180910390f35b34801561021157600080fd5b5061021a610815565b6040518082815260200191505060405180910390f35b34801561023c57600080fd5b5061024561081b565b6040518082815260200191505060405180910390f35b61028f600480360381019080803573ffffffffffffffffffffffffffffffffffffffff169060200190929190505050610821565b005b34801561029d57600080fd5b506102a66109b9565b005b3480156102b457600080fd5b506102bd610a8b565b6040518086815260200185815260200184815260200183151515158152602001821515151581526020019550505050505060405180910390f35b61031f6004803603810190808035906020019092919080359060200190929190505050610acd565b005b34801561032d57600080fd5b50610336610ce9565b604051808215151515815260200191505060405180910390f35b610358610cfc565b005b34801561036657600080fd5b5061036f610f9e565b6040518080602001828103825283818151815260200191508051906020019060200280838360005b838110156103b2578082015181840152602081019050610397565b505050509050019250505060405180910390f35b3480156103d257600080fd5b506103db61102c565b604051808273ffffffffffffffffffffffffffffffffffffffff1673ffffffffffffffffffffffffffffffffffffffff16815260200191505060405180910390f35b34801561042957600080fd5b50610432611055565b604051808215151515815260200191505060405180910390f35b34801561045857600080fd5b506104616110ac565b005b34801561046f57600080fd5b5061048e600480360381019080803590602001909291905050506110c9565b604051808273ffffffffffffffffffffffffffffffffffffffff1673ffffffffffffffffffffffffffffffffffffffff16815260200191505060405180910390f35b3480156104dc57600080fd5b506104e5611107565b6040518082815260200191505060405180910390f35b34801561050757600080fd5b5061051061110d565b6040518082815260200191505060405180910390f35b34801561053257600080fd5b5061053b61120c565b6040518080602001828103825283818151815260200191508051906020019060200280838360005b8381101561057e578082015181840152602081019050610563565b505050509050019250505060405180910390f35b34801561059e57600080fd5b506105a761129a565b6040518082815260200191505060405180910390f35b3480156105c957600080fd5b506105fe600480360381019080803573ffffffffffffffffffffffffffffffffffffffff1690602001909291905050506112a0565b005b34801561060c57600080fd5b506106156112bf565b604051808215151515815260200191505060405180910390f35b60003073ffffffffffffffffffffffffffffffffffffffff1631905090565b600a8181548110151561065d57fe5b906000526020600020016000915054906101000a900473ffffffffffffffffffffffffffffffffffffffff1681565b6000801515600860009054906101000a900460ff16151514151561073e576040517f08c379a00000000000000000000000000000000000000000000000000000000081526004018080602001828103825260298152602001807f63616e6e6f74207769746864726177207768696c65206769766561776179206981526020017f732072756e6e696e67000000000000000000000000000000000000000000000081525060400191505060405180910390fd5b600c60003373ffffffffffffffffffffffffffffffffffffffff1673ffffffffffffffffffffffffffffffffffffffff1681526020019081526020016000205490506000600c60003373ffffffffffffffffffffffffffffffffffffffff1673ffffffffffffffffffffffffffffffffffffffff168152602001908152602001600020819055503373ffffffffffffffffffffffffffffffffffffffff166108fc829081150290604051600060405180830381858888f1935050505015801561080b573d6000803e3d6000fd5b5050565b60075481565b60025481565b60035481565b600061082b611055565b151561083657600080fd5b60001515600860009054906101000a900460ff1615151415156108e7576040517f08c379a00000000000000000000000000000000000000000000000000000000081526004018080602001828103825260298152602001807f63616e6e6f74207769746864726177207768696c65206769766561776179206981526020017f732072756e6e696e67000000000000000000000000000000000000000000000081525060400191505060405180910390fd5b600c60008373ffffffffffffffffffffffffffffffffffffffff1673ffffffffffffffffffffffffffffffffffffffff1681526020019081526020016000205490506000600c60008473ffffffffffffffffffffffffffffffffffffffff1673ffffffffffffffffffffffffffffffffffffffff168152602001908152602001600020819055503373ffffffffffffffffffffffffffffffffffffffff166108fc829081150290604051600060405180830381858888f193505050501580156109b4573d6000803e3d6000fd5b505050565b6109c1611055565b15156109cc57600080fd5b600073ffffffffffffffffffffffffffffffffffffffff166000809054906101000a900473ffffffffffffffffffffffffffffffffffffffff1673ffffffffffffffffffffffffffffffffffffffff167f8be0079c531659141344cd1fd0a4f28419497f9722a3daafe3b4186f6b6457e060405160405180910390a360008060006101000a81548173ffffffffffffffffffffffffffffffffffffffff021916908373ffffffffffffffffffffffffffffffffffffffff160217905550565b6000806000806000600354600654600454600560009054906101000a900460ff16600860009054906101000a900460ff16945094509450945094509091929394565b6000610ad7611055565b1515610ae257600080fd5b6000831180610af15750600082115b80610afc5750813410155b1515610b70576040517f08c379a00000000000000000000000000000000000000000000000000000000081526004018080602001828103825260158152602001807f63616e6e6f74207374617274206769766561776179000000000000000000000081525060200191505060405180910390fd5b610b7861102c565b9050826003819055508160048190555060016003540360068190555080600b6000600260008154600101919050819055815260200190815260200160002060006101000a81548173ffffffffffffffffffffffffffffffffffffffff021916908373ffffffffffffffffffffffffffffffffffffffff160217905550346007600082825401925050819055506001600560006101000a81548160ff0219169083151502179055506001600860006101000a81548160ff021916908315150217905550600a8190806001815401808255809150509060018203906000526020600020016000909192909190916101000a81548173ffffffffffffffffffffffffffffffffffffffff021916908373ffffffffffffffffffffffffffffffffffffffff1602179055505034600c60008373ffffffffffffffffffffffffffffffffffffffff1673ffffffffffffffffffffffffffffffffffffffff16815260200190815260200160002081905550505050565b600860009054906101000a900460ff1681565b6000610d07336112d2565b9050808015610d1857506004543410155b8015610d305750600560009054906101000a900460ff165b8015610d3e57506000600654115b1515610db2576040517f08c379a00000000000000000000000000000000000000000000000000000000081526004018080602001828103825260138152602001807f63616e6e6f7420726573657276652073706f740000000000000000000000000081525060200191505060405180910390fd5b60016006540360068190555033600b6000600260008154600101919050819055815260200190815260200160002060006101000a81548173ffffffffffffffffffffffffffffffffffffffff021916908373ffffffffffffffffffffffffffffffffffffffff16021790555034600760008282540192505081905550600a3390806001815401808255809150509060018203906000526020600020016000909192909190916101000a81548173ffffffffffffffffffffffffffffffffffffffff021916908373ffffffffffffffffffffffffffffffffffffffff1602179055505034600c60003373ffffffffffffffffffffffffffffffffffffffff1673ffffffffffffffffffffffffffffffffffffffff168152602001908152602001600020819055507fe168544da07e2b669d1087085bfc0d8f9871a1d7c3226ec0fc66c8cae5beb52333604051808273ffffffffffffffffffffffffffffffffffffffff1673ffffffffffffffffffffffffffffffffffffffff16815260200191505060405180910390a160006006541415610f9b576000600560006101000a81548160ff0219169083151502179055507f5bfcea21eb3747ac99e0062ec9436f99030c74f3fafadc08fa503dcca02f36496006546040518082815260200191505060405180910390a15b50565b6060600a80548060200260200160405190810160405280929190818152602001828054801561102257602002820191906000526020600020905b8160009054906101000a900473ffffffffffffffffffffffffffffffffffffffff1673ffffffffffffffffffffffffffffffffffffffff1681526020019060010190808311610fd8575b5050505050905090565b60008060009054906101000a900473ffffffffffffffffffffffffffffffffffffffff16905090565b60008060009054906101000a900473ffffffffffffffffffffffffffffffffffffffff1673ffffffffffffffffffffffffffffffffffffffff163373ffffffffffffffffffffffffffffffffffffffff1614905090565b6110b4611055565b15156110bf57600080fd5b6110c7611323565b565b6009818154811015156110d857fe5b906000526020600020016000915054906101000a900473ffffffffffffffffffffffffffffffffffffffff1681565b60045481565b6000600160009054906101000a900473ffffffffffffffffffffffffffffffffffffffff1673ffffffffffffffffffffffffffffffffffffffff166370a08231306040518263ffffffff167c0100000000000000000000000000000000000000000000000000000000028152600401808273ffffffffffffffffffffffffffffffffffffffff1673ffffffffffffffffffffffffffffffffffffffff168152602001915050602060405180830381600087803b1580156111cc57600080fd5b505af11580156111e0573d6000803e3d6000fd5b505050506040513d60208110156111f657600080fd5b8101908080519060200190929190505050905090565b6060600980548060200260200160405190810160405280929190818152602001828054801561129057602002820191906000526020600020905b8160009054906101000a900473ffffffffffffffffffffffffffffffffffffffff1673ffffffffffffffffffffffffffffffffffffffff1681526020019060010190808311611246575b5050505050905090565b60065481565b6112a8611055565b15156112b357600080fd5b6112bc8161137e565b50565b600560009054906101000a900460ff1681565b600080600c60008473ffffffffffffffffffffffffffffffffffffffff1673ffffffffffffffffffffffffffffffffffffffff16815260200190815260200160002054905060008114915050919050565b6000600860006101000a81548160ff021916908315150217905550611346611478565b60006007819055506000600381905550600060068190555060006004819055506000600281905550600a600061137c919061184e565b565b600073ffffffffffffffffffffffffffffffffffffffff168173ffffffffffffffffffffffffffffffffffffffff16141515156113ba57600080fd5b8073ffffffffffffffffffffffffffffffffffffffff166000809054906101000a900473ffffffffffffffffffffffffffffffffffffffff1673ffffffffffffffffffffffffffffffffffffffff167f8be0079c531659141344cd1fd0a4f28419497f9722a3daafe3b4186f6b6457e060405160405180910390a3806000806101000a81548173ffffffffffffffffffffffffffffffffffffffff021916908373ffffffffffffffffffffffffffffffffffffffff16021790555050565b600080600061148561186f565b61148d6117d6565b9350600b600085815260200190815260200160002060009054906101000a900473ffffffffffffffffffffffffffffffffffffffff1692506114cd61102c565b91506114d76117fb565b905060098390806001815401808255809150509060018203906000526020600020016000909192909190916101000a81548173ffffffffffffffffffffffffffffffffffffffff021916908373ffffffffffffffffffffffffffffffffffffffff16021790555050600160009054906101000a900473ffffffffffffffffffffffffffffffffffffffff1673ffffffffffffffffffffffffffffffffffffffff1663a9059cbb8383600001516040518363ffffffff167c0100000000000000000000000000000000000000000000000000000000028152600401808373ffffffffffffffffffffffffffffffffffffffff1673ffffffffffffffffffffffffffffffffffffffff16815260200182815260200192505050602060405180830381600087803b15801561160857600080fd5b505af115801561161c573d6000803e3d6000fd5b505050506040513d602081101561163257600080fd5b810190808051906020019092919050505050600160009054906101000a900473ffffffffffffffffffffffffffffffffffffffff1673ffffffffffffffffffffffffffffffffffffffff1663a9059cbb8483604001516040518363ffffffff167c0100000000000000000000000000000000000000000000000000000000028152600401808373ffffffffffffffffffffffffffffffffffffffff1673ffffffffffffffffffffffffffffffffffffffff16815260200182815260200192505050602060405180830381600087803b15801561170d57600080fd5b505af1158015611721573d6000803e3d6000fd5b505050506040513d602081101561173757600080fd5b8101908080519060200190929190505050507f9164b2becbb10ef9dda7ed64a0ffb5c5efb14ce66936fc71f0eaf777c5d5aaea83826000015183604001518460200151604051808573ffffffffffffffffffffffffffffffffffffffff1673ffffffffffffffffffffffffffffffffffffffff16815260200184815260200183815260200182815260200194505050505060405180910390a150505050565b60008060016002546001430340600190048115156117f057fe5b060190508091505090565b61180361186f565b600061180d61110d565b9050606060405190810160405280600a8381151561182757fe5b048152602001828152602001600a8381151561183f57fe5b04830381525091508191505090565b508054600082559060005260206000209081019061186c9190611891565b50565b6060604051908101604052806000815260200160008152602001600081525090565b6118b391905b808211156118af576000816000905550600101611897565b5090565b905600a165627a7a72305820cbd8e07925654350abb2c375ced2bbe8dade9e9ec28cf48484a3c22ff48578550029",
  "source": "pragma solidity ^0.4.24;\n\nimport \"./helper_contracts/zeppelin/Ownable.sol\";\nimport \"./helper_contracts/vechain/energy.sol\";\n\n/** VeChain Giveaway Smart Contract.*/\ncontract Giveaway is Ownable {\n    Energy energy = Energy(0x0000000000000000000000000000456E65726779);\n\n    struct Payout {\n        uint ownerFee;\n        uint totalPayout;\n        uint payoutToWinner;\n    }\n\n    uint public counter;\n    uint public numSpots;\n    uint public spotCost;\n    bool public canReserve;\n    uint public availSpots;\n    uint public generatedVET;\n    bool public giveawayStatus;\n\n    address[] public winners;\n    address[] public playerAddresses;\n\n    // mapping to have counter to address value.\n    mapping (uint => address) internal players;\n\n    // mapping to have address to Receipt struct\n    mapping (address => uint) internal receipts;\n\n    // Event which will be emmitted once a spot is reserved;\n    event SpotReserved(address player);\n\n    // Event which will be emmitted once all spots are reserved;\n    event AllSpotsReserved(uint spots);\n\n    // Event which will be emmitted once winner is found.\n    event Winner(address winner, uint ownerFee, uint payoutToWinner, uint totalPayout);\n\n    /** function getGiveawayStatus returns current status of giveaway\n     */\n    function getGiveawayStatus() public view returns(uint, uint, uint, bool, bool) {\n        return (numSpots, availSpots, spotCost, canReserve, giveawayStatus);\n    }\n\n    function getEnergy() public view returns(uint) {\n        return energy.balanceOf(this);\n    }\n\n    function getBalance() public view returns(uint) {\n        return address(this).balance;\n    }\n\n    function getWinners() public view returns(address[]) {\n        return winners;\n    }\n\n    function getPlayers() public view returns(address[]) {\n        return playerAddresses;\n    }\n\n    /** startGiveaway function inititates the giveaway with #spots and cost.\n      * @param spots - no of max spots\n      * @param cost - cost of the spot.\n     */\n    function startGiveaway(uint spots, uint cost) public payable onlyOwner {\n        require((spots > 0) || (cost > 0) || (msg.value >= cost), \"cannot start giveaway\");\n\n        address manager = owner();\n        numSpots = spots;\n        spotCost = cost;\n        availSpots = numSpots - 1;\n\n        // players is used to get winner\n        players[++counter] = manager;\n\n        // increase the generatedVET\n        generatedVET += msg.value;\n\n        // set the reservation status\n        canReserve = true;\n\n        // set the giveaway status\n        giveawayStatus = true;\n\n\n        // used to get list of current players\n        playerAddresses.push(manager);\n\n        receipts[manager] = msg.value;\n    }\n\n    /** function returnFunds withdraws given amount */\n    function withdraw() public payable {\n        require(giveawayStatus == false, \"cannot withdraw while giveaway is running\");\n\n        uint amount = receipts[msg.sender];\n\n        receipts[msg.sender] = 0;\n        msg.sender.transfer(amount);\n    }\n\n    // fallback incase msg sender does not return funds\n    function withdrawByAddress(address player) public payable onlyOwner {\n        require(giveawayStatus == false, \"cannot withdraw while giveaway is running\");\n        uint amount = receipts[player];\n\n        receipts[player] = 0;\n        msg.sender.transfer(amount);\n    }\n\n    /** function hasPlayed checks if msg.sender has reserved a spot \n      * @return reserved - if msg.sender has reserved a spot\n     */\n    function hasNotReserved(address player) internal view returns(bool) {\n        uint amount = receipts[player];\n        return amount == 0;\n    }\n\n    /** function reserveSpot allows user to reserve spots\n     */\n    function reserveSpot() public payable {\n        bool hasntReserved = hasNotReserved(msg.sender);\n        // require player to not have already reserved a spot OR,\n        // value sent is greater or equal to spotCost OR,\n        // canReserve is true OR,\n        // there are available spots\n        require((hasntReserved) && (msg.value >= spotCost) && (canReserve) && (availSpots > 0), \"cannot reserve spot\");\n\n        availSpots = availSpots - 1;\n        players[++counter] = msg.sender;\n        generatedVET += msg.value;\n        playerAddresses.push(msg.sender);\n\n        receipts[msg.sender] = msg.value;\n\n        emit SpotReserved(msg.sender);\n\n        if (availSpots == 0) {\n            canReserve = false;\n            emit AllSpotsReserved(availSpots);\n        }\n    }\n\n    /** endGiveaway function which would be called only by Owner.\n     */\n    function endGiveaway() public onlyOwner {\n        resetGiveaway();\n    }\n\n    /** calculatePayout function.\n      * this calls getEnergy function and\n      * and takes a creates a 10% owner fee from energy\n      * @return (ownerFee, payoutToWinner) - payouts to owner and winner\n     */\n    function calculatePayout() internal view returns(Payout payout) {\n        uint totalPayout = getEnergy();\n\n        payout = Payout({\n            totalPayout: totalPayout,\n            ownerFee: totalPayout / 10,\n            payoutToWinner: totalPayout - (totalPayout / 10)\n        });\n\n        return payout;\n    }\n\n    /** getWinner getter function. \n      * this calls getRandomNumber function and\n      * finds the winner using players mapping\n     */\n    function getWinner() internal {\n        uint winnerIndex = getRandomNumber();\n        address winnerAddress = players[winnerIndex];\n        address manager = owner();\n\n        Payout memory payout = calculatePayout();\n\n        winners.push(winnerAddress);\n        energy.transfer(manager, payout.ownerFee);\n        energy.transfer(winnerAddress, payout.payoutToWinner);\n\n        emit Winner(winnerAddress, payout.ownerFee, payout.payoutToWinner, payout.totalPayout);\n    }\n\n    /** getRandomNumber function, which finds the random number using counter.\n     */\n    function getRandomNumber() internal view returns(uint) {\n        uint random = uint(blockhash(block.number - 1)) % counter + 1;\n        return random;\n    }\n\n    /** resetGiveaway function resets giveaway and find the Winner.\n     */\n    function resetGiveaway() internal {\n        giveawayStatus = false;\n        getWinner();\n        generatedVET = 0;\n        numSpots = 0;\n        availSpots = 0;\n        spotCost = 0;\n        counter = 0;\n        delete playerAddresses;\n    }\n}\n",
  "sourcePath": "/Users/kenneth/Projects/giveaway/contracts/Giveaway.sol",
  "compiler": {
    "name": "solc",
    "version": "0.4.24+commit.e67f0147.Emscripten.clang"
  },
  "schemaVersion": "2.0.1",
  "updatedAt": "2018-12-09T04:08:56.108Z"
}