{
  "contractName": "Giveaway",
  "abi": [
    {
      "constant": true,
      "inputs": [
        {
          "name": "",
          "type": "uint256"
        }
      ],
      "name": "playerAddresses",
      "outputs": [
        {
          "name": "",
          "type": "address"
        }
      ],
      "payable": false,
      "stateMutability": "view",
      "type": "function"
    },
    {
      "constant": false,
      "inputs": [],
      "name": "renounceOwnership",
      "outputs": [],
      "payable": false,
      "stateMutability": "nonpayable",
      "type": "function"
    },
    {
      "constant": true,
      "inputs": [],
      "name": "owner",
      "outputs": [
        {
          "name": "",
          "type": "address"
        }
      ],
      "payable": false,
      "stateMutability": "view",
      "type": "function"
    },
    {
      "constant": true,
      "inputs": [],
      "name": "isOwner",
      "outputs": [
        {
          "name": "",
          "type": "bool"
        }
      ],
      "payable": false,
      "stateMutability": "view",
      "type": "function"
    },
    {
      "constant": true,
      "inputs": [
        {
          "name": "",
          "type": "uint256"
        }
      ],
      "name": "winners",
      "outputs": [
        {
          "name": "",
          "type": "address"
        }
      ],
      "payable": false,
      "stateMutability": "view",
      "type": "function"
    },
    {
      "constant": false,
      "inputs": [
        {
          "name": "newOwner",
          "type": "address"
        }
      ],
      "name": "transferOwnership",
      "outputs": [],
      "payable": false,
      "stateMutability": "nonpayable",
      "type": "function"
    },
    {
      "anonymous": false,
      "inputs": [
        {
          "indexed": true,
          "name": "counter",
          "type": "uint256"
        },
        {
          "indexed": false,
          "name": "winner",
          "type": "address"
        },
        {
          "indexed": false,
          "name": "mesg",
          "type": "string"
        },
        {
          "indexed": false,
          "name": "ownerFee",
          "type": "uint256"
        },
        {
          "indexed": false,
          "name": "payoutToWinner",
          "type": "uint256"
        }
      ],
      "name": "Winner",
      "type": "event"
    },
    {
      "anonymous": false,
      "inputs": [
        {
          "indexed": false,
          "name": "player",
          "type": "address"
        }
      ],
      "name": "SpotReserved",
      "type": "event"
    },
    {
      "anonymous": false,
      "inputs": [
        {
          "indexed": false,
          "name": "spots",
          "type": "uint256"
        }
      ],
      "name": "AllSpotsReserved",
      "type": "event"
    },
    {
      "anonymous": false,
      "inputs": [
        {
          "indexed": true,
          "name": "previousOwner",
          "type": "address"
        },
        {
          "indexed": true,
          "name": "newOwner",
          "type": "address"
        }
      ],
      "name": "OwnershipTransferred",
      "type": "event"
    },
    {
      "constant": true,
      "inputs": [],
      "name": "getGiveawayStatus",
      "outputs": [
        {
          "name": "",
          "type": "uint256"
        },
        {
          "name": "",
          "type": "uint256"
        },
        {
          "name": "",
          "type": "uint256"
        },
        {
          "name": "",
          "type": "bool"
        }
      ],
      "payable": false,
      "stateMutability": "view",
      "type": "function"
    },
    {
      "constant": true,
      "inputs": [],
      "name": "getEnergy",
      "outputs": [
        {
          "name": "",
          "type": "uint256"
        }
      ],
      "payable": false,
      "stateMutability": "view",
      "type": "function"
    },
    {
      "constant": true,
      "inputs": [],
      "name": "getWinners",
      "outputs": [
        {
          "name": "",
          "type": "address[]"
        }
      ],
      "payable": false,
      "stateMutability": "view",
      "type": "function"
    },
    {
      "constant": true,
      "inputs": [],
      "name": "getPlayers",
      "outputs": [
        {
          "name": "",
          "type": "address[]"
        }
      ],
      "payable": false,
      "stateMutability": "view",
      "type": "function"
    },
    {
      "constant": false,
      "inputs": [
        {
          "name": "spots",
          "type": "uint256"
        },
        {
          "name": "cost",
          "type": "uint256"
        }
      ],
      "name": "startGiveaway",
      "outputs": [],
      "payable": true,
      "stateMutability": "payable",
      "type": "function"
    },
    {
      "constant": false,
      "inputs": [],
      "name": "returnFunds",
      "outputs": [],
      "payable": true,
      "stateMutability": "payable",
      "type": "function"
    },
    {
      "constant": false,
      "inputs": [],
      "name": "reserveSpot",
      "outputs": [],
      "payable": true,
      "stateMutability": "payable",
      "type": "function"
    },
    {
      "constant": false,
      "inputs": [],
      "name": "endGiveaway",
      "outputs": [],
      "payable": false,
      "stateMutability": "nonpayable",
      "type": "function"
    }
  ],
  "bytecode": "0x6080604052336000806101000a81548173ffffffffffffffffffffffffffffffffffffffff021916908373ffffffffffffffffffffffffffffffffffffffff1602179055506000809054906101000a900473ffffffffffffffffffffffffffffffffffffffff1673ffffffffffffffffffffffffffffffffffffffff16600073ffffffffffffffffffffffffffffffffffffffff167f8be0079c531659141344cd1fd0a4f28419497f9722a3daafe3b4186f6b6457e060405160405180910390a3611459806100cf6000396000f3006080604052600436106100d0576000357c0100000000000000000000000000000000000000000000000000000000900463ffffffff16806315c6aee2146100d55780631eb5ea2e14610142578063715018a61461014c5780637c36cde9146101635780637c87d9bc146101a75780638a5efa4e146101d15780638b5b9ccc146101db5780638da5cb5b146102475780638f32d59b1461029e5780639f54c9e4146102cd578063a2fb1175146102e4578063c02e705714610351578063df15c37e1461037c578063f2fde38b146103e8575b600080fd5b3480156100e157600080fd5b506101006004803603810190808035906020019092919050505061042b565b604051808273ffffffffffffffffffffffffffffffffffffffff1673ffffffffffffffffffffffffffffffffffffffff16815260200191505060405180910390f35b61014a610469565b005b34801561015857600080fd5b50610161610554565b005b34801561016f57600080fd5b50610178610626565b604051808581526020018481526020018381526020018215151515815260200194505050505060405180910390f35b6101cf6004803603810190808035906020019092919080359060200190929190505050610653565b005b6101d961086a565b005b3480156101e757600080fd5b506101f0610afe565b6040518080602001828103825283818151815260200191508051906020019060200280838360005b83811015610233578082015181840152602081019050610218565b505050509050019250505060405180910390f35b34801561025357600080fd5b5061025c610b8c565b604051808273ffffffffffffffffffffffffffffffffffffffff1673ffffffffffffffffffffffffffffffffffffffff16815260200191505060405180910390f35b3480156102aa57600080fd5b506102b3610bb5565b604051808215151515815260200191505060405180910390f35b3480156102d957600080fd5b506102e2610c0c565b005b3480156102f057600080fd5b5061030f60048036038101908080359060200190929190505050610c29565b604051808273ffffffffffffffffffffffffffffffffffffffff1673ffffffffffffffffffffffffffffffffffffffff16815260200191505060405180910390f35b34801561035d57600080fd5b50610366610c67565b6040518082815260200191505060405180910390f35b34801561038857600080fd5b50610391610c97565b6040518080602001828103825283818151815260200191508051906020019060200280838360005b838110156103d45780820151818401526020810190506103b9565b505050509050019250505060405180910390f35b3480156103f457600080fd5b50610429600480360381019080803573ffffffffffffffffffffffffffffffffffffffff169060200190929190505050610d25565b005b60088181548110151561043a57fe5b906000526020600020016000915054906101000a900473ffffffffffffffffffffffffffffffffffffffff1681565b600080600091505b6008805490508210156105505760088281548110151561048d57fe5b9060005260206000200160009054906101000a900473ffffffffffffffffffffffffffffffffffffffff1690508073ffffffffffffffffffffffffffffffffffffffff166108fc600a60008473ffffffffffffffffffffffffffffffffffffffff1673ffffffffffffffffffffffffffffffffffffffff168152602001908152602001600020600001549081150290604051600060405180830381858888f19350505050158015610542573d6000803e3d6000fd5b508180600101925050610471565b5050565b61055c610bb5565b151561056757600080fd5b600073ffffffffffffffffffffffffffffffffffffffff166000809054906101000a900473ffffffffffffffffffffffffffffffffffffffff1673ffffffffffffffffffffffffffffffffffffffff167f8be0079c531659141344cd1fd0a4f28419497f9722a3daafe3b4186f6b6457e060405160405180910390a360008060006101000a81548173ffffffffffffffffffffffffffffffffffffffff021916908373ffffffffffffffffffffffffffffffffffffffff160217905550565b600080600080600154600254600354600660009054906101000a900460ff16935093509350935090919293565b600061065d610bb5565b151561066857600080fd5b6001831115806106785750600082145b8061068257508134105b156106f5576040517f08c379a00000000000000000000000000000000000000000000000000000000081526004018080602001828103825260138152602001807f73746172744769766561776179206572726f720000000000000000000000000081525060200191505060405180910390fd5b6106fd610b8c565b9050826001819055508160038190555060018054036002819055508060096000600560008154600101919050819055815260200190815260200160002060006101000a81548173ffffffffffffffffffffffffffffffffffffffff021916908373ffffffffffffffffffffffffffffffffffffffff160217905550346004600082825401925050819055506001600660006101000a81548160ff02191690831515021790555060088190806001815401808255809150509060018203906000526020600020016000909192909190916101000a81548173ffffffffffffffffffffffffffffffffffffffff021916908373ffffffffffffffffffffffffffffffffffffffff1602179055505060206040519081016040528034815250600a60003373ffffffffffffffffffffffffffffffffffffffff1673ffffffffffffffffffffffffffffffffffffffff16815260200190815260200160002060008201518160000155905050505050565b610872610d44565b8061087e575060035434105b806108965750600660009054906101000a900460ff16155b806108a357506000600254145b15610916576040517f08c379a00000000000000000000000000000000000000000000000000000000081526004018080602001828103825260118152602001807f7265736572766553706f74206572726f7200000000000000000000000000000081525060200191505060405180910390fd5b6001600254036002819055503360096000600560008154600101919050819055815260200190815260200160002060006101000a81548173ffffffffffffffffffffffffffffffffffffffff021916908373ffffffffffffffffffffffffffffffffffffffff1602179055503460046000828254019250508190555060083390806001815401808255809150509060018203906000526020600020016000909192909190916101000a81548173ffffffffffffffffffffffffffffffffffffffff021916908373ffffffffffffffffffffffffffffffffffffffff1602179055505060206040519081016040528034815250600a60003373ffffffffffffffffffffffffffffffffffffffff1673ffffffffffffffffffffffffffffffffffffffff168152602001908152602001600020600082015181600001559050507fe168544da07e2b669d1087085bfc0d8f9871a1d7c3226ec0fc66c8cae5beb52333604051808273ffffffffffffffffffffffffffffffffffffffff1673ffffffffffffffffffffffffffffffffffffffff16815260200191505060405180910390a160006002541415610afc577f5bfcea21eb3747ac99e0062ec9436f99030c74f3fafadc08fa503dcca02f36496002546040518082815260200191505060405180910390a15b565b60606008805480602002602001604051908101604052809291908181526020018280548015610b8257602002820191906000526020600020905b8160009054906101000a900473ffffffffffffffffffffffffffffffffffffffff1673ffffffffffffffffffffffffffffffffffffffff1681526020019060010190808311610b38575b5050505050905090565b60008060009054906101000a900473ffffffffffffffffffffffffffffffffffffffff16905090565b60008060009054906101000a900473ffffffffffffffffffffffffffffffffffffffff1673ffffffffffffffffffffffffffffffffffffffff163373ffffffffffffffffffffffffffffffffffffffff1614905090565b610c14610bb5565b1515610c1f57600080fd5b610c27610deb565b565b600781815481101515610c3857fe5b906000526020600020016000915054906101000a900473ffffffffffffffffffffffffffffffffffffffff1681565b6000610c92433073ffffffffffffffffffffffffffffffffffffffff16610e4690919063ffffffff16565b905090565b60606007805480602002602001604051908101604052809291908181526020018280548015610d1b57602002820191906000526020600020905b8160009054906101000a900473ffffffffffffffffffffffffffffffffffffffff1673ffffffffffffffffffffffffffffffffffffffff1681526020019060010190808311610cd1575b5050505050905090565b610d2d610bb5565b1515610d3857600080fd5b610d4181610f69565b50565b60008060008090505b600880549050811015610de357600881815481101515610d6957fe5b9060005260206000200160009054906101000a900473ffffffffffffffffffffffffffffffffffffffff1673ffffffffffffffffffffffffffffffffffffffff163373ffffffffffffffffffffffffffffffffffffffff16141515610dd15760009150610dd6565b600191505b8080600101915050610d4d565b819250505090565b6000600660006101000a81548160ff021916908315150217905550610e0e611063565b6000600481905550600060018190555060006002819055506000600381905550600060058190555060086000610e4491906113e7565b565b60007f50726f746f74797065000000000000000000000000000000000000000000000077010000000000000000000000000000000000000000000000900473ffffffffffffffffffffffffffffffffffffffff16631e95be4584846040518363ffffffff167c0100000000000000000000000000000000000000000000000000000000028152600401808373ffffffffffffffffffffffffffffffffffffffff1673ffffffffffffffffffffffffffffffffffffffff16815260200182815260200192505050602060405180830381600087803b158015610f2657600080fd5b505af1158015610f3a573d6000803e3d6000fd5b505050506040513d6020811015610f5057600080fd5b8101908080519060200190929190505050905092915050565b600073ffffffffffffffffffffffffffffffffffffffff168173ffffffffffffffffffffffffffffffffffffffff1614151515610fa557600080fd5b8073ffffffffffffffffffffffffffffffffffffffff166000809054906101000a900473ffffffffffffffffffffffffffffffffffffffff1673ffffffffffffffffffffffffffffffffffffffff167f8be0079c531659141344cd1fd0a4f28419497f9722a3daafe3b4186f6b6457e060405160405180910390a3806000806101000a81548173ffffffffffffffffffffffffffffffffffffffff021916908373ffffffffffffffffffffffffffffffffffffffff16021790555050565b6000806000806000611073611239565b94506009600086815260200190815260200160002060009054906101000a900473ffffffffffffffffffffffffffffffffffffffff1693506110b3610b8c565b92506110bd61125e565b91509150847f86f58d5c2f54cbd8e176d7a0c5789dd8e81f3076eec5f7ad5c25ffff8b43cfd1858484604051808473ffffffffffffffffffffffffffffffffffffffff1673ffffffffffffffffffffffffffffffffffffffff168152602001806020018481526020018381526020018281038252600d8152602001807f57696e6e657220466f756e64210000000000000000000000000000000000000081525060200194505050505060405180910390a2611176610469565b60078490806001815401808255809150509060018203906000526020600020016000909192909190916101000a81548173ffffffffffffffffffffffffffffffffffffffff021916908373ffffffffffffffffffffffffffffffffffffffff1602179055505061120783833073ffffffffffffffffffffffffffffffffffffffff166112919092919063ffffffff16565b61123284823073ffffffffffffffffffffffffffffffffffffffff166112919092919063ffffffff16565b5050505050565b600080600160055460014303406001900481151561125357fe5b060190508091505090565b600080600080600061126e610c67565b9250600a8381151561127c57fe5b04915081830390508181945094505050509091565b7f456e6572677900000000000000000000000000000000000000000000000000007a010000000000000000000000000000000000000000000000000000900473ffffffffffffffffffffffffffffffffffffffff1663bb35783b8484846040518463ffffffff167c0100000000000000000000000000000000000000000000000000000000028152600401808473ffffffffffffffffffffffffffffffffffffffff1673ffffffffffffffffffffffffffffffffffffffff1681526020018373ffffffffffffffffffffffffffffffffffffffff1673ffffffffffffffffffffffffffffffffffffffff1681526020018281526020019350505050602060405180830381600087803b1580156113a657600080fd5b505af11580156113ba573d6000803e3d6000fd5b505050506040513d60208110156113d057600080fd5b810190808051906020019092919050505050505050565b50805460008255906000526020600020908101906114059190611408565b50565b61142a91905b8082111561142657600081600090555060010161140e565b5090565b905600a165627a7a72305820f78eed629f357b8acca7c3f8020116fe53a4e956529e1c2fd0e0b3e06a1fc2540029",
  "source": "pragma solidity ^0.4.24;\n\nimport \"./helper_contracts/zeppelin/Ownable.sol\";\nimport \"./helper_contracts/vechain/builtin.sol\";\n\n/** VeChain Giveaway Smart Contract.*/\ncontract Giveaway is Ownable {\n    using Builtin for Giveaway;\n\n    struct Receipt {\n        uint amount;\n    }\n\n    uint private numSpots;\n    uint private availSpots;\n    uint private spotCost;\n    uint private generatedAmount;\n    uint private counter;\n    bool private status;\n\n    address[] public winners;\n    address[] public playerAddresses;\n\n    // mapping to have counter to address value.\n    mapping (uint => address) internal players;\n\n    // mapping to have address to Receipt struct\n    mapping (address => Receipt) internal receipts;\n\n    // Event which will be emmitted once winner is found.\n    event Winner(uint indexed counter, address winner, string mesg, uint ownerFee, uint payoutToWinner);\n\n    // Event which will be emmitted once a spot is reserved;\n    event SpotReserved(address player);\n\n    // Event which will be emmitted once all spots are reserved;\n    event AllSpotsReserved(uint spots);\n\n    /** function getGiveawayStatus returns current status of giveaway\n     */\n    function getGiveawayStatus() public view returns(uint, uint, uint, bool) {\n        return (numSpots, availSpots, spotCost, status);\n    }\n\n    function getEnergy() public view returns(uint) {\n        return this.$energy(block.number);\n    }\n\n    function getWinners() public view returns(address[]) {\n        return winners;\n    }\n\n    function getPlayers() public view returns(address[]) {\n        return playerAddresses;\n    }\n\n    /** startGiveaway function inititates the giveaway with #spots and cost.\n      * @param spots - no of max spots\n      * @param cost - cost of the spot.\n     */\n    function startGiveaway(uint spots, uint cost) public payable onlyOwner {\n        if ((spots <= 1) || (cost == 0) || (msg.value < cost)) {\n            revert(\"startGiveaway error\");\n        }\n        address manager = owner();\n        numSpots = spots;\n        spotCost = cost;\n        availSpots = numSpots - 1;\n        players[++counter] = manager;\n        // increase the generatedAmount\n        generatedAmount += msg.value;\n        // set the status to True\n        status = true;\n        playerAddresses.push(manager);\n        receipts[msg.sender] = Receipt(msg.value);\n    }\n\n    /** function hasPlayed checks if msg.sender has reserved a spot \n      * @return reserved - if msg.sender has reserved a spot\n     */\n    function hasReserved() internal view returns(bool) {\n        bool played;\n\n        /** use uint in an array as var can only hold 255 elements\n          * and the playerAddresses array may contain more than 255\n         */\n        for (uint i = 0; i < playerAddresses.length; i++) {\n            if (msg.sender != playerAddresses[i]) {\n                played = false;\n            } else {\n                played = true;\n            }\n        }\n\n        return played;\n    }\n\n    /** function returnFunds returns funds to user\n      * when all spots are reserved.\n     */\n    function returnFunds() public payable {\n        for (uint i = 0; i < playerAddresses.length; i++) {\n            address player = playerAddresses[i];\n            player.transfer(receipts[player].amount);\n        }\n    }\n\n    /** function reserveSpot allows user to reserve spots\n     */\n    function reserveSpot() public payable {\n        // revert in case user already has bought a reserved a spot OR,\n        // value sent is less than the spot cost OR,\n        // status is false.\n        if (hasReserved() || (msg.value < spotCost) || (!status) || (availSpots == 0)) {\n            revert(\"reserveSpot error\");\n        }\n\n        availSpots = availSpots - 1;\n        players[++counter] = msg.sender;\n        generatedAmount += msg.value;\n        playerAddresses.push(msg.sender);\n        receipts[msg.sender] = Receipt(msg.value);\n\n        emit SpotReserved(msg.sender);\n\n        if (availSpots == 0) {\n            emit AllSpotsReserved(availSpots);\n        }\n    }\n\n    /** endGiveaway function which would be called only by Owner.\n     */\n    function endGiveaway() public onlyOwner {\n        (\n            availSpots == 0,\n            \"more spots available\"\n        );\n\n        resetGiveaway();\n    }\n\n    /** calculatePayout function.\n      * this calls getEnergy function and\n      * and takes a creates a 10% owner fee from energy\n      * @return (ownerFee, payoutToWinner) - payouts to owner and winner\n     */\n    function calculatePayout() internal view returns(uint, uint) {\n        uint totalPayout = getEnergy(); \n        uint ownerFee = totalPayout / 10;\n        uint payoutToWinner = totalPayout - ownerFee;\n\n        return (ownerFee, payoutToWinner);\n    }\n\n    /** getWinner getter function. \n      * this calls getRandomNumber function and\n      * finds the winner using players mapping\n     */\n    function getWinner() internal {\n        uint winnerIndex = getRandomNumber();\n        address winnerAddress = players[winnerIndex];\n        address manager = owner();\n        (uint ownerFee, uint payoutToWinner) = calculatePayout();\n\n        emit Winner(winnerIndex, winnerAddress, \"Winner Found!\", ownerFee, payoutToWinner);\n\n        returnFunds();\n        winners.push(winnerAddress);\n        this.$moveEnergyTo(manager, ownerFee);\n        this.$moveEnergyTo(winnerAddress, payoutToWinner);\n    }\n\n    /** getRandomNumber function, which finds the random number using counter.\n     */\n    function getRandomNumber() internal view returns(uint) {\n        uint random = uint(blockhash(block.number - 1)) % counter + 1;\n        return random;\n    }\n\n    /** resetGiveaway function resets giveaway and find the Winner.\n     */\n    function resetGiveaway() internal {\n        status = false;\n        getWinner();\n        generatedAmount = 0;\n        numSpots = 0;\n        availSpots = 0;\n        spotCost = 0;\n        counter = 0;\n        delete playerAddresses;\n    }\n}\n",
  "sourcePath": "/Users/kenneth/Projects/giveaway/contracts/Giveaway.sol",
  "compiler": {
    "name": "solc",
    "version": "0.4.24+commit.e67f0147.Emscripten.clang"
  },
  "schemaVersion": "2.0.1",
  "updatedAt": "2018-12-06T21:13:04.201Z"
}